:1000000052C1000081C100007FC100007DC100001D
:100010007BC1000079C1000077C1000075C10000FC
:1000200073C1000071C100006FC100006DC100000C
:100030006BC1000069C1000067C1000065C100001C
:1000400063C100000C9422145FC100005DC1000078
:100050005BC1000059C1000057C100000C945E2133
:1000600053C100000C94D2120C94A9124DC100008F
:100070004BC1000049C1000047C1000045C100005C
:100080000C94F51341C100003FC100003DC10000C8
:100090003BC1000039C1000037C100000C945B195E
:1000A00033C1000031C100000C94C8132DC1000001
:1000B0002BC1000029C1000027C100000C949B1334
:1000C00023C1000021C100001FC100001DC10000AC
:1000D0001BC1000019C1000017C1000015C10000BC
:1000E00013C10000FA07FD07EC07F007F607340814
:1000F000010805080B080F08130819081D08210836
:10010000340827082B082F0846092C0B8F09C6092D
:10011000400AD50A830B4F0B870A840F880F8C0F78
:10012000900F940F980F9C0FD810DF10E610ED1071
:10013000F4100C11FB100C11021155205A205F20F5
:1001400069207320EC207D2085208D209720A12020
:10015000AB20BA20C420EC20CE20D820E2204F4B88
:10016000004F4B004F4B006E2F6100000021002418
:100170000027002A002D0030003300010100000498
:100180000107010A0100002200250028002B002E93
:10019000003100340002010000050108010B0100DC
:1001A0000020002300260029002C002F0032000030
:1001B0000100000301060109010505050507050801
:1001C000080808020202020A0A08080404040401DA
:1001D00001010101010101030303030303030304FC
:1001E0000707070C0C0C0C0C0C0C0C02020202068C
:1001F000060606060606060B0B0B0B0B0B0B0B017C
:100200000210202008081020401020408002010227
:1002100001080402010102040810204080804020EF
:10022000100804020180040201804020100804022A
:1002300001080402010102040810204080010204A8
:10024000081020408000000A0B02090C0D0E080760
:100250000304010000000000000000000000000096
:10026000000000000000000000000000000000008E
:10027000001211100000000000000000000000004B
:1002800000000000000000000000002000526F632A
:100290006B732100200020004D6F6269666C6967F6
:1002A00068740000052711241FBECFEFD1E2DEBF26
:1002B000CDBF00E00CBF13E0A0E0B2E0EAECF1E655
:1002C00000E00BBF02C007900D92A838B107D9F724
:1002D00026E1A8E8B3E001C01D92A53EB207E1F710
:1002E00011E0C3E5D1E000E006C021970109802FAD
:1002F000FE010E94DC2BC235D10780E00807A9F778
:100300000E94A8210C94E3307BCEEDE9F3E09081CC
:10031000981301C01082319693E0E33EF907B9F7D4
:1003200008950E9452216093A6087093A7088093B5
:10033000A8089093A9088AE090E00E94291F80E015
:1003400092E00E947A1F8FE192E00E947A1F84E17E
:1003500092E00E947A1F8CE892E00E947A1F0C942F
:100360003D1F0E9452216093A6087093A7088093B6
:10037000A8089093A90867E671E085E090E00C94E6
:100380005A1F81E08093C00864E671E081E190E04B
:100390000C945A1FFF920F931F93CF93DF9381E02A
:1003A000B4DF1092E30388E0B0DF1092BF0883E06F
:1003B000ACDF10929C0384E0A8DF00E010E0C09165
:1003C0009B03D0E0C017D10789F0CC0FDD1FCC0F05
:1003D000DD1FC956DE4E8A81882329F088819981E4
:1003E0000E947C2C1A820F5F1F4FE9CF10929B0353
:1003F00080919A0320E030E0482F50E06BE1869F27
:10040000C00111248359964FDC011996EC012A96FC
:100410004217530799F06C91662369F0E881F0E088
:10042000BF01660F771FE60FF71FE053F74F60819C
:100430006F7B60831C922F5F3F4FEACF86E065DFC2
:1004400010929A03C0E0D0E08091BE0890E08C1733
:100450009D0759F0880F991FFC01E655F74F8081E1
:1004600091810E947C2C2196EFCF89E04EDF109283
:10047000BE0800E010E086E0F82E8091990390E03D
:100480008017910791F0F89EE001F99ED00D11249C
:10049000CF59D64F8A81882329F0888199810E947B
:1004A0007C2C1A820F5F1F4FE8CF10929903109295
:1004B0008D0310928C031092C008DF91CF911F9191
:1004C0000F91FF90089566DF6EE571E085E090E0A2
:1004D0000C945A1F40E054E063E474E08BE390E036
:1004E0000E94B61F61E671E08FE090E00C945A1F05
:1004F0000F931F93CF93C82F8A0187E090E00E944B
:10050000291FC8010E947A1F8091C415882399F081
:100510006091981680919516909196160E94141EDF
:100520004C2F50E060E070E02AE0809195169091A9
:1005300096160E94CB1DCF911F910F910C943D1FD9
:100540000F931F93CF93C82F8A0186E090E00E94FB
:10055000291FC8010E947A1F8091C415882399F031
:100560006091981680919516909196160E94141E8F
:100570004C2F50E060E070E02AE080919516909159
:1005800096160E94CB1DCF911F910F910C943D1F89
:10059000DF92EF92FF920F931F93CF93DF93D82EAA
:1005A000C7E9D1E1E12CF12C80919B0390E0E816A2
:1005B000F90691F010E08B81811749F0612F70E00E
:1005C0004D2D888199810E94651C1F5FF4CF8FEFAC
:1005D000E81AF80A2496E8CFC7EDD4E100E010E06D
:1005E00080919C0390E00817190779F0DD2021F035
:1005F000198260E070E002C0698170E088810E9429
:100600002C200F5F1F4F2296EBCFDF91CF911F91D0
:100610000F91FF90EF90DF9008955F926F927F921D
:100620008F929F92AF92BF92CF92DF92EF92FF9202
:100630000F931F93CF93DF93CDB7DEB7CB55D1097F
:100640000FB6F894DEBF0FBECDBF7090BF0894E127
:10065000791609F4E6C0E82FF0E0DF01A356BC4F9D
:100660007D019C919111DDC0E62FF0E0DF01A356E2
:10067000BC4F6D019C919111D4C0642E562E682FF1
:10068000A72CB12CFE01349687E4DF011D928A95D8
:10069000E9F788E290E06C969FAF8EAF6C971B8273
:1006A0008BE58A9D40018B9D900C11248401055897
:1006B000154F3397D80101900D928A95E1F7F80113
:1006C000E45BFF4F108211821282138232973183D2
:1006D0002083F80160835182E85AFF4F4083C401B0
:1006E0008258954F0E940820652DC4018957954F67
:1006F0000E940820D80155961C92559757961C9237
:100700001E92569759961C921E925897F801128E77
:10071000138E148E158E88EE93E0A0E0B0E0868FE5
:10072000978FA0A3B1A3D401A356B54F85E0869DB2
:10073000F0011124E75AFD4F01900D928A95E1F7DF
:100740000E945221F801E05CFF4F60837183828335
:1007500093832BE5729EF0011124EE55F54F20E0B6
:1007600011921192119211926087718782879387FB
:100770002F5F2330A9F78BE58A9DF0018B9DF00D4B
:100780001124E558F54F17AEDF01AC5BBF4F26EAE9
:1007900030E011963C932E9348E15CEF6FEF7FEFD2
:1007A000428F538F648F758F48EE53E060E070E0A6
:1007B000468F578F60A371A318964D915C91BA0133
:1007C00006A002C0759567950A94E2F726893789D5
:1007D00023703327262B372B378B268B518F408F57
:1007E00091E092832091BF08829FC0011124855817
:1007F000954FFC01E05BFF4F40EA52E0518340839C
:10080000329651834083329651834083329651838E
:10081000408388E0F7018083D6018C932F5F20937B
:10082000BF08C55ADF4F0FB6F894DEBF0FBECDBF6D
:10083000DF91CF911F910F91FF90EF90DF90CF90BC
:10084000BF90AF909F908F907F906F905F90089532
:10085000CF92DF92EF92FF92F82E4BE050E064E1EE
:1008600072E080E390E001D4F11009C0809114029D
:10087000833529F4809115028E3409F460C080918B
:100880007B00877F80937B0080E480937C00809155
:100890007A00806480937A0080917A0086FDFCCF94
:1008A000609178008091790070E0782B072E000C21
:1008B000880B990B611571058105910511F00E9456
:1008C00092280E944728CC24CA942FE0D22EE12CF3
:1008D000F12CA70196010E94622A7F936F9388E60C
:1008E00093E09F938F9384E192E09F938F930E9474
:1008F000082E0E944728A70196010E94622A7F9332
:100900006F9381E793E09F938F938BE192E09F93A6
:100910008F930E94082E8DB79EB70C960FB6F89451
:100920009EBF0FBE8DBF4BE050E064E172E080E3FC
:1009300090E0FF90EF90DF90CF900C94B61FFF9067
:10094000EF90DF90CF900895CF93DF9300D000D049
:10095000CDB7DEB763E474E0CE0101960E947D1D41
:10096000CE0101963AD489819A810E947C2C09DDBE
:1009700026960FB6F894DEBF0FBECDBFDF91CF91A4
:1009800008950F931F93CF93DF9300D000D0CDB77E
:10099000DEB70E9452216093A6087093A708809347
:1009A000A8089093A9080E94E81EBC01CE010196F8
:1009B0000E947D1D60918C0370918D034D815E813D
:1009C0008B01040F151F40E054E0401B510B4230D7
:1009D000510574F16D5B7B4F6115710521F0CE01FE
:1009E00001960E94941F10938D0300938C038091B5
:1009F000C415811135C085E090E00E94291F8091C7
:100A0000C415882391F06091981680919516909165
:100A100096160E94141EA801110F660B770B809189
:100A20009516909196160E94FA1E0E943D1F18C0BE
:100A30008091C415811114C085E090E00E94291FA7
:100A40008091C415882389F360919816809195163A
:100A5000909196160E94141E4FEF5FEFBA01DFCF00
:100A600089819A810E947C2C26960FB6F894DEBF6D
:100A70000FBECDBFDF91CF911F910F910895CF93FE
:100A8000DF9300D000D0CDB7DEB720918A0330913C
:100A90008B0380918803909189032817390721F4EB
:100AA00010928903109288038091880390918903A2
:100AB00090938B0380938A031092430480E0C8DEF6
:100AC000EDE9F3E0119243E0E33EF407D9F70E9429
:100AD00052216093A6087093A7088093A80890936A
:100AE000A90858DC40E054E063E474E08BE390E054
:100AF000BCD2E3E4F4E080E090E0382F292F8115A8
:100B000044E0940749F0419101964111F6CF3093AA
:100B10008C0320938D0304C090938D0380938C03EA
:100B200063E474E0CE0101960E947D1DCE01019622
:100B300054D389819A810E947C2C23DC198241E064
:100B400050E0BE016F5F7F4F80E090E08ED28981E0
:100B5000833239F44FE250E06FE172E081E090E0DF
:100B600084D226960FB6F894DEBF0FBECDBFDF91BC
:100B7000CF9108952F923F924F925F926F927F9202
:100B80008F929F92AF92BF92CF92DF92EF92FF929D
:100B90000F931F93CF93DF93CDB7DEB72A970FB68E
:100BA000F894DEBF0FBECDBFE091BE08EA3009F475
:100BB000EDC1FC01FF27DF01A356BC4FBA83A98317
:100BC000EC91E111E3C1FB01FF27DF01A356BC4F0C
:100BD000BC83AB83EC91E111D9C1FA01FF27DF019E
:100BE000A356BC4FBE83AD83EC91E111CFC1F90197
:100BF000FF27DF01A356BC4FB887AF83EC91E1110B
:100C0000C5C1101611063CF4F801FF27E356FC4F4E
:100C1000E081E111BBC149017A015B016C0186E50C
:100C200090E00E94E42B9A8789873C01F2E06F0EE6
:100C3000711C86E792E0A985BA8513969C938E93E2
:100C4000129784E014968C931497FD0115861686EE
:100C50001786108A51961D921D921D921C925497D0
:100C6000158A168A178A108E212C312C80E8482E7E
:100C70008FE3582E59962D923D924D925C925C973F
:100C8000158E168E178E10A291962D923D924D9232
:100C90005C92949715A216A217A210A681E090E08C
:100CA00096A785A78FEF80AB99961D921D921D92F6
:100CB0001C929C9715968C9215971696AC92169747
:100CC0001796CC9217971896EC92189715AA16AA11
:100CD00017AA10AED9961D921D921D921C92DC97F8
:100CE000FD9610821182128213825D01B1E4AB0E77
:100CF000B11CF5012082318242825382E985FA8556
:100D0000EB5BFF4F1082A985BA8519961C92199743
:100D10001A961C921A971B961C921B971C961C9253
:100D2000C3010E944212E985FA85C58CD68CE78CF6
:100D3000F0A0A2019101C701B6010E9422298823D7
:100D400039F1E985FA8565A976A987A990AD0E9450
:100D50002829A70196010E9487290E948C2BA9852A
:100D6000BA85D5966D937D938D939C93D89786E89D
:100D700096E6A9E6B9E4E985FA8581AF92AFA3AF1B
:100D8000B4AF258E368E478E50A2C3010E944F14F9
:100D900046E753E0602FE984FA84B6E4EB0EF11CD9
:100DA000C7010E944319E985FA8511828091F803F1
:100DB000E82FF0E0EE0FFF1FEC51FC4F29853A853C
:100DC000318320838F5F8093F8038FE091E1D70117
:100DD00019969C938E9318971B969C938E931A97B3
:100DE000E091BE08F0E0EE0FFF1FE655F74F3183AC
:100DF000208320E030E048EC53E4E985FA85618DFA
:100E0000728D838D948D0E942229882309F445C018
:100E100080E090E0A8ECB3E4E985FA85818F928FB9
:100E2000A38FB48F80E090E4ACE1B5E4F50180835A
:100E30009183A283B383E985FA8585A996A9A7A999
:100E4000B0AD181619061A061B063CF56589768999
:100E50008789908D9B01AC010E9487296B017C01E1
:100E6000A985BA855D966D917D918D919C919097A4
:100E70009B01AC010E94C02A9B01AC01C701B601D5
:100E80000E94242B0E948C2BE985FA8565AB76ABFA
:100E900087AB90AFC3010E944F14E091BE08F0E011
:100EA000EE0FFF1FE655F74F208131813A872987E2
:100EB000D9015D96CD90DD90ED90FC90909720E06B
:100EC00030E048E454E4C701B6010E942229882397
:100ED000C1F1E985FA8565A976A987A990AD0E9437
:100EE00028294B015C0120E030E048E454E4C701CC
:100EF000B6010E94242B9B01AC01C501B4010E94E4
:100F000087290E948C2BA985BA85D5966D937D93F0
:100F10008D939C93D89781E098E0A4E0B7E4E985AD
:100F2000FA8581AF92AFA3AFB4AF80E090E0A8E4C0
:100F3000B4E4858F968FA78FB0A3CF0102960E944D
:100F40004F1489E0A981BA818C93EB81FC81808365
:100F5000AD81BE818C93EF81F885808310161106D8
:100F600084F41127F801E356FC4F8083E091BE081A
:100F7000F0E0EE0FFF1FE655F74F808191810E9450
:100F8000601E8091BE088F5F8093BE082A960FB6C0
:100F9000F894DEBF0FBECDBFDF91CF911F910F91AF
:100FA000FF90EF90DF90CF90BF90AF909F908F9089
:100FB0007F906F905F904F903F902F90089590E0BA
:100FC000FC013197E231F10508F04EC08827EE5858
:100FD000FF4F8F4F0C94DC2B809180008F7703C0E4
:100FE000809180008F7D80938000089580918000A3
:100FF000877FF9CF84B58F7702C084B58F7D84BD9C
:1010000008958091B0008F7703C08091B0008F7DEC
:101010008093B0000895809190008F7707C08091F1
:1010200090008F7D03C080919000877F8093900017
:1010300008958091A0008F7707C08091A0008F7DD8
:1010400003C08091A000877F8093A00008958091C5
:1010500020018F7707C0809120018F7D03C0809190
:101060002001877F809320010895CF92DF92EF9235
:10107000FF920F931F93CF93DF936C017B018A0143
:10108000C0E0D0E0C017D10760F4B6016C0F7D1F3F
:1010900041E050E0C7018C0F9D1F0E943B2A219622
:1010A000F1CFC801DF91CF911F910F91FF90EF9089
:1010B000DF90CF900895CF93DF93282F30E0F90190
:1010C000EB5BFD4F8491F901E150FE4FD491F901A2
:1010D000E754FE4FC491CC2389F0811170DFEC2FCF
:1010E000F0E0EE0FFF1FE156FE4FA591B491EC9199
:1010F000ED2381E090E021F480E002C080E090E008
:10110000DF91CF9108951F93CF93DF93282F30E085
:10111000F901EB5BFD4F8491F901E150FE4FD49151
:10112000F901E754FE4FC491CC23B9F0162F811179
:1011300046DFEC2FF0E0EE0FFF1FEB57FE4FA591BF
:10114000B4919FB7F894111104C08C91D095D82315
:1011500002C0EC91DE2BDC939FBFDF91CF911F91FA
:101160000895CF93DF9390E0FC01E150FE4F24916E
:10117000FC01E754FE4F8491882361F190E0880FD1
:10118000991FFC01E559FE4FC591D491FC01EB5725
:10119000FE4FA591B491611109C09FB7F894888161
:1011A000209582238883EC912E230BC0623061F45A
:1011B0009FB7F8948881322F309583238883EC91F0
:1011C0002E2B2C939FBF06C08FB7F894E8812E2B4F
:1011D00028838FBFDF91CF9108952F923F924F9236
:1011E0005F926F927F928F929F92AF92BF92CF92B7
:1011F000DF92EF92FF920F931F93CF93DF93CDB7C0
:10120000DEB7C751D4400FB6F894DEBF0FBECDBFD6
:101210001A821982FE0133962FEF33E0DF01A90114
:101220001D9241505040E1F7C25FDB4F1982188296
:10123000CE50D44040E054E0BE016F5F7F4F0E942B
:10124000941FAE01425F5B4F68E773E0CE010196E9
:101250000E94DE28DC012C91222309F415C516E03A
:10126000712E08E0402E0E949B28FC013197AE01B0
:10127000425F5B4FE930F10508F001C468E773E0B5
:101280008827EC57FF4F8F4F0C94DC2B80E090E0C9
:101290000E94DE288C01AE01425F5B4F6AE773E07B
:1012A00080E090E00E94DE287C01C8010E949B281B
:1012B000D090E303B4E4DB1609F4E7C38C011127F3
:1012C00003561C4FF80120812111DFC3A701682FAD
:1012D000CE018E5F9B4F0E9443198CE08D9DD00103
:1012E0001124A955BE4EFE01EE5FFB4F982F0190D1
:1012F0000D929A95E1F79091E303899FF0011124F3
:10130000E955FE4E28E732E0338722873187208770
:1013100081E0D8018C939F5F9093E303B6C380E094
:1013200090E00E94DE288C01AE01425F5B4F6AE7CD
:1013300073E080E090E00E94DE28C8010E949B28B4
:101340007C01D0909C03B8E2DB1609F49EC38C01AB
:10135000112703561C4FF8018081811196C361E06B
:101360008E2DFFDE60E070E08E2D0E942C20ED2D92
:10137000F0E0EE0FFF1FE952FB4EE082118283E0A6
:10138000D8018C93D394D0929C037FC380E090E0EB
:101390000E94DE288C01AE01425F5B4F68E773E07C
:1013A00080E090E00E94DE287C01AE01425F5B4F4E
:1013B00068E773E080E090E00E94DE286C01AE01F7
:1013C000425F5B4F68E773E080E090E00E94DE28B8
:1013D0004C01AE01425F5B4F68E773E080E090E054
:1013E0000E94DE285C01AE01425F5B4F6AE773E05A
:1013F00080E090E00E94DE28C4010E949B28682EB5
:10140000C5010E949B281C01C6010E949B286C01FB
:10141000C7010E949B284C01C8010E949B287C01A7
:1014200050909B03B4E05B1609F42FC39927FC018D
:10143000E356FC4FCE5EDB4FF983E883C251D440C4
:101440008081811122C3C60199279C0123563C4FFC
:10145000CC5EDB4F39832883C451D440D9018C91B1
:10146000811113C3F401FF27C05FDB4FF983E883C9
:10147000C051D440E356FC4F8081811106C312C392
:1014800080E090E00E94DE288C01AE01425F5B4F5D
:1014900068E773E080E090E00E94DE287C01AE0106
:1014A000425F5B4F68E773E080E090E00E94DE28D7
:1014B0006C01AE01425F5B4F68E773E080E090E053
:1014C0000E94DE285C01AE01425F5B4F68E773E07B
:1014D00080E090E00E94DE28AE01425F5B4F6AE749
:1014E00073E080E090E00E94DE28C5010E949B2806
:1014F0005C01C6010E949B286C01C7010E949B28C9
:101500007C01C8010E949B2800E010E049C080E0F7
:1015100090E00E94DE284C01AE01425F5B4F68E71D
:1015200073E080E090E00E94DE287C01AE01425F23
:101530005B4F68E773E080E090E00E94DE286C017A
:10154000AE01425F5B4F68E773E080E090E00E948D
:10155000DE285C01AE01425F5B4F68E773E080E02C
:1015600090E00E94DE288C01AE01425F5B4F6AE78B
:1015700073E080E090E00E94DE28C8010E949B2872
:101580008C01C5010E949B285C01C6010E949B281A
:101590006C01C7010E949B287C01C4010E949B280A
:1015A0009501A601B701E6DA70C280E090E00E94E2
:1015B000DE288C01AE01425F5B4F6AE773E080E09A
:1015C00090E00E94DE28C8010E949B28D0909A03D8
:1015D000BAE0DB1609F459C29C013327F901E3563E
:1015E000FC4F7F012081211150C2FBE1DF9E800171
:1015F00011240359164FD80119961C921997F80116
:10160000158616861786108A51961D921D921D9278
:101610001C92549712961C921E921197E4EBF0E0E4
:101620001496FC93EE93139716961C921E921597A0
:101630001896FC93EE9317978C930E945221D80131
:1016400055966D937D938D939C935897F701708277
:10165000D394D0929A0319C280E090E00E94DE28D1
:101660007C01AE01425F5B4F68E773E080E090E091
:101670000E94DE286C01AE01425F5B4F6AE773E0B7
:1016800080E090E00E94DE288C01C6010E949B2829
:10169000D82EC7010E949B28980140E030C080E00E
:1016A00090E00E94DE287C01AE01425F5B4F68E75C
:1016B00073E080E090E00E94DE286C01AE01425FA2
:1016C0005B4F68E773E080E090E00E94DE285C01F9
:1016D000AE01425F5B4F6AE773E080E090E00E94FA
:1016E000DE288C01C5010E949B28B82EC6010E94ED
:1016F0009B28D82EC7010E949B2898014B2D6D2D49
:101700000E940D03C2C180E090E00E94DE288C019F
:10171000AE01425F5B4F68E773E080E090E00E94BB
:10172000DE287C01AE01425F5B4F68E773E080E03A
:1017300090E00E94DE286C01AE01425F5B4F6AE7D9
:1017400073E080E090E00E94DE28C6010E949B28A2
:10175000B82EC7010E949B28A82EC8010E949B2872
:10176000982E80919903823009F48FC1E82EF12CD4
:101770007E9CC0017F9C900D11249C012F59364FF7
:101780006901D90113969C9213971496AC92149701
:101790001596BC928CE090E00E94E42B8C01FC0139
:1017A0001382128228E932E0318320839482A0865A
:1017B000B18612864386D60111969C938E9381E062
:1017C00012968C931092980310929703109296039E
:1017D00010929503109294038093930310929203B6
:1017E00061E084E190DC61E085E18DDC8091B9000D
:1017F0008E7F8093B9008091B9008D7F8093B9006E
:1018000088E48093B80085E48093BC00E5EFF5E1BF
:10181000F0939103E093900326EF35E130938F032B
:1018200020938E03D80115961C92159719968C91CA
:101830001997823010F015964C92F80192859923F1
:1018400029F0813019F485818460858362E370E03A
:1018500080E090E00E941A21D8011B966C91C8018B
:10186000D7D668EE73E080E090E00E941A2160E332
:10187000C80131D78BE496E40197F1F760E3C80122
:101880002AD78BE496E40197F1F760E3C80123D7E8
:1018900083E592E00197F1F760E2C8011CD7F801F7
:1018A0006581606240E0C8012CD784E0D8011696BB
:1018B0008C9340E06CE0C80124D740E061E0C801AF
:1018C00020D78BE39FE10197F1F782E0F80187834E
:1018D00040E066E0C80115D740E062E0C80111D7DA
:1018E0008BE39FE10197F1F77E9C80017F9C100DB7
:1018F00011240F59164FD8018D919C91FC014386FC
:1019000060E086D6D80112968C911297882309F44C
:10191000B0C015966C911597669561508D919C910C
:101920000E94DC1FB12C6801B4E0CB0ED11C4B2D02
:1019300050E0F601208130E0C9010A9797FD019639
:10194000959587954817590741F06CE773E0D801E2
:101950008D919C91E9D5B394EACF7E9C80017F9CC8
:10196000100D11240F59164F68E972E0F8018081BB
:1019700091810E941B1EB12C6801F4E0CF0ED11C96
:101980004B2D50E0D6012C9130E0C9010A9797FD0C
:101990000196959587954817590749F066E972E0D1
:1019A000F801808191810E941B1EB394E9CF7E9C37
:1019B00080017F9C100D11240F59164FD8011596E8
:1019C0006C91159766958D919C910E94DC1FB12CAE
:1019D0006801B4E0CB0ED11C4B2D50E0F601208104
:1019E00030E0C901069797FD0196959587954817B0
:1019F000590749F064E972E0D8018D919C910E94E9
:101A00001B1EB394E9CF7E9C80017F9C100D112496
:101A10000F59164F6DE872E0F801808191810E94A4
:101A20001B1EB12C6801F4E0CF0ED11C4B2D50E0F1
:101A3000D6012C9130E0C901069797FD0196959546
:101A400087954817590749F06BE872E0F8018081E3
:101A500091810E941B1EB394E9CF7E9CF0017F9C74
:101A6000F00D1124EF59F64F60E0808191810E94C2
:101A7000DC1F809199038F5F8093990306C06AE70A
:101A800073E080E090E00E94DE28AE01425F5B4F91
:101A900068E773E080E090E00E94DE28009709F09C
:101AA000E2CBF2C0252D30E0CA5EDB4F39832883BC
:101AB000C651D44088E590E00E94E42B8C01C1011E
:101AC0009927F801E05BFF4FF182E082580132E58F
:101AD000A30EB11CD501CD92DC926801B4E5CB0E0A
:101AE000D11CF601918280829C012150310928305D
:101AF000310508F0C6C04801F6E58F0E911CD401EF
:101B00008D939C9361E08E2D2CDB61E0F50180814B
:101B100028DB61E0D6018C9124DB61E0F601808155
:101B2000F2DAD801A05BBF4F1196FC92EE92F80159
:101B300070961192AE17BF07E1F7E12CF12CD4019A
:101B40008D919C91E816F9067CF520E04FE0B701F5
:101B5000C8010E94871BF7FC0CC0F40180819181B1
:101B6000E816F90634F427E04BE0B701C8010E94FB
:101B7000871B20E049E0B701C8010E94871BF7FCE2
:101B80000AC0D4018D919C91E816F90624F4B7019E
:101B9000C8010E940D1C41E0B701C8010E94651CEC
:101BA000BFEFEB1AFB0ACBCFCA5EDB4FE881F981AE
:101BB000C651D440EE0FFF1FEE0FFF1FE956FE4E39
:101BC000DF010D931D9381E082832382E12CF12CB0
:101BD0008F0133965F016D01D5018C91282F30E084
:101BE0002E153F0591F1F6019081992399F0E816A1
:101BF00088F4B7017727D8018D919C91FC01EA5AAE
:101C0000FF4F208131816217730724F4262D4AE0AB
:101C10000E94871B40E0B701F801808191810E94FA
:101C2000651CF7FC0EC0D8018D919C91FC01EA5A0D
:101C3000FF4F20813181E216F3061CF4B7010E94A8
:101C40000D1CBFEFEB1AFB0AC7CF84E0CE5EDB4F63
:101C5000E881F981C251D4408083C05FDB4FE881C5
:101C6000F981C051D440E356FC4F8083CC5EDB4FFA
:101C7000A881B981C451D4408C93539450929B0352
:101C800004CF88E090E037CFC95EDB4F0FB6F89401
:101C9000DEBF0FBECDBFDF91CF911F910F91FF909F
:101CA000EF90DF90CF90BF90AF909F908F907F90FC
:101CB0006F905F904F903F902F900895FC01538D4F
:101CC000448D252F30E0842F90E0821B930B541716
:101CD00010F0CF96089501970895FC01918D828DA3
:101CE000981761F0828DDF01A80FB11D5D968C9170
:101CF000928D9F5F9F73928F90E008958FEF9FEF7B
:101D00000895FC01918D828D981731F0828DE80F36
:101D1000F11D858D90E008958FEF9FEF0895FC01F0
:101D2000918D228D892F90E0805C9F4F821B9109BD
:101D30008F739927089587E295E1F1DF21E0892BE0
:101D400009F420E0822F0895FC01848DDF01A80FA3
:101D5000B11DA35ABF4F2C91848D90E001968F73D3
:101D60009927848FA689B7892C93A089B1898C91F2
:101D7000837080648C93938D848D981306C0028841
:101D8000F389E02D80818F7D80830895EF92FF920B
:101D90000F931F93CF93DF93EC0181E0888F9B8D8E
:101DA0008C8D981305C0E889F989808185FD25C04F
:101DB000F62E0B8D10E00F5F1F4F0F731127E02ED3
:101DC0008C8DE8120BC00FB607FCFACFE889F989B1
:101DD000808185FFF5CFCE01B7DFF2CF8B8DFE017D
:101DE000E80FF11DE35AFF4FF0829FB7F8940B8F75
:101DF000EA89FB89808180620AC09FB7F894EE89E6
:101E0000FF896083E889F989808183708064808399
:101E10009FBF81E090E0DF91CF911F910F91FF90E4
:101E2000EF900895CF93DF93EC01888D8823C1F064
:101E3000EA89FB89808185FD05C0A889B9898C91D3
:101E400086FD0EC00FB607FCF5CF808185FFF2CF6F
:101E5000A889B9898C9185FFEDCFCE0175DFE8CFD8
:101E6000DF91CF91089580E090E0892B19F063DF36
:101E7000811125C080E090E0892B41F080E090E066
:101E8000892B21F00E94000081111CC080E090E0AD
:101E9000892B41F080E090E0892B21F00E94000026
:101EA000811113C080E090E0892BA1F080E090E0E8
:101EB000892B81F00E94000081110AC008950E94C0
:101EC0000000D8CF0E940000E1CF0E940000EACFBE
:101ED0000C9400000895CF93DF93DC0147705527E1
:101EE00066277727FA013197CD91DC911197E7307A
:101EF000F10530F48827E357FF4F8F4F0C94DC2B0C
:101F0000EC81FD8161E01BC0EC81FD8165E017C0C3
:101F1000EC81FD8164E013C0EC81FD8166E00FC0BF
:101F2000EC81FD8162E00BC0EC81FD816AE007C0BD
:101F3000EC81FD8168E003C0EC81FD8169E0CD01A9
:101F4000DF91CF911994CF93DF93EC01CB01BA01CC
:101F500026E030E040E050E00E94622A62307105E5
:101F60008105910559F18CF4611571058105910583
:101F7000F1F06130710581059105C1F5E881F981C4
:101F80000480F581E02D65E02DC064307105810588
:101F9000910511F1D4F0653071058105910531F598
:101FA000E881F9810480F581E02D66E01BC0E881BD
:101FB000F9810480F581E02D64E014C0E881F981A5
:101FC0000480F581E02D61E00DC0E881F981048095
:101FD000F581E02D63E006C0E881F9810480F58198
:101FE000E02D62E0CE01DF91CF911994DF91CF9186
:101FF00008954370552766277727DC01ED91FC9102
:102000000480F581E02D423051056105710571F0C4
:10201000433051056105710559F0413051056105A5
:10202000710511F065E005C066E003C06AE001C01B
:1020300069E01994CF93DF93EC01CB01BA0123E05F
:1020400030E040E050E00E94622A61307105810575
:10205000910581F0623071058105910591F0672B42
:10206000682B692BC1F4E881F9810480F581E02DAA
:1020700064E00DC0E881F9810480F581E02D61E024
:1020800006C0E881F9810480F581E02D62E0CE018F
:10209000DF91CF911994DF91CF9108954370552727
:1020A00066277727DC01ED91FC910480F581E02D16
:1020B000423051056105710571F0433051056105EC
:1020C000710559F0413051056105710511F062E06B
:1020D00005C063E003C061E001C060E019940F93A4
:1020E0001F93CF93DF93EC01E881F9810480F581A0
:1020F000E02D8C010D5B1F4FD8018C91811102C026
:1021000060E001C062E0CE011995E881F9810480A8
:10211000F581E02DD8018C91811102C061E001C0F0
:1021200063E0CE0119958BA59CA58230910538F00E
:10213000880F991F880F991F05970197F1F7E8817C
:10214000F9810480F581E02DD8018C91811102C0C4
:1021500060E001C062E0CE01DF91CF911F910F914D
:102160001994CF93DF93EC0120E030E0A9016B8953
:102170007C898D899E890E94BD2B18161CF4EFA5C1
:10218000F8A902C0E9A9FAA9DF91CF9119940F9398
:102190001F93DC0112960C91129710E00930110583
:1021A000D8F5F8018827EC56FF4F8F4F0C94DC2BA5
:1021B000ED91FC9111970084F185E02D29C0ED91FE
:1021C000FC9111970284F385E02D22C0ED91FC91E2
:1021D00011970484F585E02D1BC0ED91FC911197BA
:1021E0000684F785E02D14C0ED91FC9111970088CD
:1021F000F189E02D0DC0ED91FC9111970288F389D2
:10220000E02D06C0ED91FC9111970488F589E02D31
:10221000CD011F910F9119941F910F910895CF93A4
:10222000DF9381112DC02091F80330E0A4EEB3E0DC
:1022300080E090E0821793071CF5ED91FD91EF018E
:10224000CA5BDF4F4A81641319C081818823C1F0C2
:10225000158616861786108A118A128A138A148A9E
:1022600015AA16AA17AA10AE15A216A217A210A692
:10227000158A168A178A108E118202C00196DACF4B
:10228000DF91CF910895CF92DF92EF92FF920F935B
:102290001F93CF93DF936C018B017A01EC01C25C39
:1022A000DB4F888187FF04C0FB011182108224C0AC
:1022B0002CE02C9DC0012D9D900D11242881AC0196
:1022C000420F511D27FD5A952091600930E04217B9
:1022D000530794F42881AC01420F511D27FD5A95F4
:1022E0009A01FA01EE0FFF1F2E0F3F1FF901E05375
:1022F000F74F208126FD19C088818F5F88832CE0ED
:102300002C9DC0012D9D900D11242881AC01420F00
:10231000511D27FD5A952091600930E0421753075F
:10232000BCF428812C3044F113C02881820F911D08
:1023300027FD9A95FC01EE0FFF1F8E0F9F1FFC01DA
:10234000E053F74F808160E08F730E948308D4CF01
:10235000F80180819181049680349C4918F480E4CE
:102360009CE904C0F801808191810496F701918372
:1023700080838FEF888345C0F80140815181288197
:10238000BC01620F711D27FD7A959B01FB01EE0FC9
:10239000FF1F2E0F3F1FF901E053F74F21813281BC
:1023A000240F351FF701318320832881AC01420FB0
:1023B000511D27FD5A959A01FA01EE0FFF1F2E0FAE
:1023C0003F1FF901E053F74F208126FF1AC02881F3
:1023D000820F911D27FD9A95FC01EE0FFF1F8E0FB6
:1023E0009F1FFC01E053F74F808161E08F73DF9105
:1023F000CF911F910F91FF90EF90DF90CF900C94B1
:102400008308DF91CF911F910F91FF90EF90DF90A4
:10241000CF900895CF92DF92EF92FF920F931F9388
:10242000CF93DF93EC019A81943041F0983031F0F2
:10243000933031F0963021F012E003C014E001C077
:1024400013E02396E12CF12CC62ED12C01E0C6011D
:102450000E2C02C0959587950A94E2F76C8180FD59
:10246000602789910E9483088FEFE81AF80AE11625
:1024700070F3DF91CF911F910F91FF90EF90DF905C
:10248000CF900895CF93DF93FC012281222359F14D
:10249000EC0161E083810E94B10861E08C810E94BF
:1024A000B1088A81843011F0883039F461E08D817F
:1024B0000E94B10861E08E8106C0833011F0863041
:1024C00021F461E08D810E94B1088EA58F3F59F003
:1024D00061E00E94B1086DA581E068278EA5DF91BB
:1024E000CF910C948308DF91CF910895CF93DF9320
:1024F000FC0122812223A9F0EC010190F081E02D62
:102500000480F581E02D60E019958EA58F3F49F09C
:1025100061E00E94B1086DA58EA5DF91CF910C946A
:102520008308DF91CF9108956115710579F0FB0162
:1025300001900020E9F73197AF01461B570BDC01F2
:10254000ED91FC910280F381E02D199480E090E000
:1025500008951F920F920FB60F9211240BB60F928F
:102560002F933F934F935F936F937F938F939F939B
:10257000AF93BF93EF93FF9387E295E1E5DBFF9184
:10258000EF91BF91AF919F918F917F916F915F91EB
:102590004F913F912F910F900BBE0F900FBE0F9058
:1025A0001F9018951F920F920FB60F9211240BB621
:1025B0000F922F938F939F93EF93FF93E091371593
:1025C000F09138158081E0913D15F0913E1582FD26
:1025D00012C09081809140158F5F8F7320914115BB
:1025E000821751F0E0914015F0E0E95DFA4E958FC9
:1025F0008093401501C08081FF91EF919F918F9151
:102600002F910F900BBE0F900FBE0F901F9018953B
:10261000CF93FC01C48121E020931D04C0934204A8
:1026200010929603109295038385682B82EC98E0B4
:1026300036D390919503913208F045C08091940370
:102640008111FCCF82E08093940381E08093930317
:102650008FEF80931C0410921B0490931A04AEE138
:10266000B4E0EAEFF3E080E0981721F02D91219398
:102670008F5FFACF1092F9038091F903CC0FC82B2A
:10268000C093F90380919203813061F41092920318
:102690008091F9038093BB008091BC0083FDF8CF4B
:1026A00085EC01C085EE8093BC008091940382305C
:1026B000E1F380911C048F3F31F080911C04803243
:1026C00011F080911C0410929603109295031092C1
:1026D0001D04CF9108950F931F93CF938C01C62FA4
:1026E00097DF6C2F6460C80193DF6C2F6B7FC8018C
:1026F0008FDF83EC90E00197F1F7CF911F910F915D
:1027000008950F931F93CF93DF938C01C62FD42F7F
:10271000607F642BE0DF80E1C89FB00111246D2B46
:10272000C801DF91CF911F910F91D5CF41E0E9DF33
:1027300081E090E008951F920F920FB60F9211243E
:102740000BB60F922F933F934F935F936F937F93AB
:102750008F939F93AF93BF93EF93FF9348E251E022
:1027600064E271E080E090E08EDDFF91EF91BF9137
:10277000AF919F918F917F916F915F914F913F9119
:102780002F910F900BBE0F900FBE0F901F901895BA
:102790001F920F920FB60F9211240BB60F922F9328
:1027A0003F934F935F936F937F938F939F93AF93D9
:1027B000BF93EF93FF9348EA50E064EA70E083E050
:1027C00090E061DDFF91EF91BF91AF919F918F916B
:1027D0007F916F915F914F913F912F910F900BBE21
:1027E0000F900FBE0F901F9018951F920F920FB66B
:1027F0000F9211240BB60F922F933F934F935F9339
:102800006F937F938F939F93AF93BF93EF93FF93B8
:1028100048E950E064E970E082E090E034DDFF9147
:10282000EF91BF91AF919F918F917F916F915F9148
:102830004F913F912F910F900BBE0F900FBE0F90B5
:102840001F9018951F920F920FB60F9211240BB67E
:102850000F922F933F934F935F936F937F938F9339
:102860009F93AF93BF93EF93FF9348E850E064E8E2
:1028700070E081E090E007DDFF91EF91BF91AF91B3
:102880009F918F917F916F915F914F913F912F9188
:102890000F900BBE0F900FBE0F901F9018954F9288
:1028A0005F926F927F928F929F92AF92BF92CF92E0
:1028B000DF92EF92FF920F931F93CF93DF93EC0180
:1028C0008F849888A988BA888B859C85AD85BE85BC
:1028D000881A990AAA0ABB0A6B897C898D899E8904
:1028E0009B01AC010E9487296B017C016B8D7C8D63
:1028F0008D8D9E8D9B01AC010E94C02A9B01AC0175
:10290000C701B6010E94242B0E948C2B81149104D4
:10291000A104B10499F462307105810591050CF0B0
:1029200079C01BA21CA21DA21EA21B8A1C8A1D8A82
:102930001E8A1BAA1CAA1DAA1EAAF4C00BA91CA9A8
:102940002DA93EA9FE01ED5BFF4F181419041A04CE
:102950001B04FCF410161106120613064CF468153D
:1029600079058A059B054CF52081211153C025C0AE
:10297000011511052105310509F44CC068157905CB
:102980008A059B050CF046C08081882309F442C06B
:1029900036C01016110612061306ECF40027112794
:1029A0009801081919092A093B096017710782075C
:1029B00093071CF42081222369F19B01AC01882735
:1029C0009927DC01821B930BA40BB50B8BAB9CAB43
:1029D000ADABBEAB1FC00115110521053105D1F00E
:1029E000CC24DD247601C818D908EA08FB086C1548
:1029F0007D058E059F0574F4808181110BC0309593
:102A00002095109501951F4F2F4F3F4F0BAB1CABDF
:102A10002DAB3EABCBA8DCA8EDA8FEA88E010D5BCC
:102A20001F4FC114D104E104F10491F48FA998ADB2
:102A3000A9ADBAAD8BAF9CAFADAFBEAF81E01814FE
:102A400019041A041B040CF080E0F80180833EC0D6
:102A50008BAC9CACADACBEACA5019401C501B4017E
:102A60000E94C02A2B013C01C701B6010E942829FF
:102A700020E030E040E850E40E94872920E030E088
:102A800040E85FE30E94C02A9B01AC01C301B20190
:102A90000E94242B9B01AC01C501B4010E94BF2AF6
:102AA0002B013C01FE01FF9680809180A280B380C3
:102AB0009401A5010E94BD2B181614F44201530184
:102AC000C401D5018BAF9CAFADAFBEAFFFEFCF1A46
:102AD000DF0AEF0AFF0ACBAADCAAEDAAFEAACBAC5A
:102AE000DCACEDACFEACC701B6010E94912B6BA330
:102AF0007CA38DA39EA3A701960160E074E284E706
:102B000099E40E94242B6B8B7C8B8D8B9E8BF80120
:102B10002081211107C0DC01CB01B0588B8B9C8B2D
:102B2000AD8BBE8BDF91CF911F910F91FF90EF90F6
:102B3000DF90CF90BF90AF909F908F907F906F90DD
:102B40005F904F900895DC0113968C91139781113B
:102B50000CC01896ED91FC911997309731F04D917A
:102B60005C91119712966C910CC01A96ED91FC91A4
:102B70001B97309739F04D915C91119712966C919B
:102B800081E01994089585ED8093BC008091BC008C
:102B900084FDFCCF10929403089540918308262F62
:102BA00030E0240F311D21323105DCF420919403F3
:102BB0002430C9F4FC0180E090E0861758F430918D
:102BC00083082191DC01AD59B74FA30FB11D2C93A0
:102BD0000196F3CF80918308680F6093830880E0AB
:102BE000089581E0089582E0089508950895089574
:102BF000E091980380919703E81730F4F0E0ED5BE3
:102C0000F74F808190E008958FEF9FEF08959091A6
:102C1000980380919703981750F4E92FF0E0ED5B4B
:102C2000F74F208130E09F5F9093980302C02FEF11
:102C30003FEFC90108958091970390E02091980398
:102C4000821B91090895CF92DF92EF92FF920F932A
:102C50001F93CF93DF937C01CB018A0120911D0448
:102C6000222389F0EB016B01C40ED51ECC15DD05C6
:102C700061F06991D701ED91FC910190F081E02D17
:102C8000C7011995F3CF642F88DFC801DF91CF9179
:102C90001F910F91FF90EF90DF90CF900895CF9309
:102CA000DF931F92CDB7DEB7698320911D042223E5
:102CB000D1F020919503203240F021E030E0FC017A
:102CC0003383228380E090E014C080919603E82F44
:102CD000F0E0E25EFB4F998190838F5F80939603D3
:102CE0008093950304C061E0CE01019656DF81E038
:102CF00090E00F90DF91CF910895089580E090E0EB
:102D000008950F931F93CF93DF93C7EAD1E100E0BB
:102D100010E08091E30390E00817190731F0CE012D
:102D200012DF0F5F1F4F2C96F4CFDF91CF911F91D1
:102D30000F9108950E9452216093A6087093A708EE
:102D40008093A8089093A9088AE090E00E94291F28
:102D500083E494E00E947A1F0C943D1F81E00E945E
:102D600028048AE090E00E94291F84E192E00E94FA
:102D70007A1F0C943D1F4F925F926F927F928F92B9
:102D80009F92AF92BF92CF92DF92EF92FF920F93FA
:102D90001F93CF93DF930E94D51E8C010E94D51EF6
:102DA000BC0180919A0390E0081719070CF0F1C05C
:102DB0008BE1809FE001819FD00D1124C359D64F34
:102DC000CD80DE800D2C000CEE08FF0889809A80F3
:102DD000092C000CAA08BB082F813885C901330FC4
:102DE000AA0BBB0B9C01AD012C193D094E095F09D3
:102DF000CB01770FAA0BBB0BBC01CD016819790978
:102E00008A099B090E94C12B2B813C812901330F28
:102E100066087708A3019201281939094A095B0954
:102E20000E94622AC20ED31EE41EF51E0D2C000C59
:102E3000EE08FF088D859E85AF85B8898C159D05A8
:102E4000AE05BF0509F46EC0CD86DE86EF86F88A32
:102E50008985811167C08A85803308F059C0F88060
:102E600061E08F2D0E94B1088A85E82FF0E09F0174
:102E7000220F331FE20FF31FE053F74F9F2D9F7375
:102E80002081207CF22EF92AF0821B861C866CE0C1
:102E90000E94D02B9CE0899FB001112440E050E0BB
:102EA0009B01240F351FF901EE0FFF1F2E0F3F1F4F
:102EB000F901E053F74F908196FD16C04F5F5F4FC9
:102EC0004C30510569F78130C1F51092800082E0E5
:102ED000809381001092850010928400B19A8091B5
:102EE0006F00826080936F008BE1809FF001819F73
:102EF000F00D1124E359F64FE285F0E0CF01880F81
:102F0000991FE80FF91FE053F74F80818064808399
:102F10008BE1809FF001819FF00D1124E359F64F62
:102F200081E081870E9452216093A6087093A708D0
:102F30008093A8089093A9082CC0823061F4109265
:102F4000900080939100109295001092940088BB9D
:102F500080937100C9CF833069F41092A00082E0A1
:102F60008093A1001092A5001092A40089BB8093C9
:102F70007200BACF8111B8CF1092200182E0809305
:102F8000210110922501109224018ABB80937300C5
:102F9000ABCFDF91CF911F910F91FF90EF90DF901A
:102FA000CF90BF90AF909F908F907F906F905F90E9
:102FB0004F900895FAD62091BE0830E0821793070B
:102FC00034F5880F991FFC01E655F74F0190F08109
:102FD000E02D158616861786108A118A128A138AA2
:102FE000148A15AA16AA17AA10AE15A216A217A21D
:102FF00010A6158A168A178A108E0E945221609395
:10300000A6087093A7088093A8089093A90808952C
:103010008F929F92AF92BF92CF92DF92FF920F93C7
:103020001F93CF93DF93CDB7DEB765970FB6F894B4
:10303000DEBF0FBECDBFB9D65C01CAD66C0186E03B
:103040008A9D80018B9D100D1124D801AF59B64F78
:1030500012968C911297882399F11A8219829E01F7
:103060002D5F3F4F83E1F90111928A95E9F7F12C29
:103070008D014D01F5E08F0E911C5D0184E0A80EDD
:10308000B11CF40180818F15D9F06F2DF80180817A
:10309000918192D7F5018081482F50E0B6018F9D34
:1030A000600D711D1124CE0101960E94E92DBE0113
:1030B0006F5F7F4FF8018081918136DAF394E1CF21
:1030C0008091C415811106C085E090E0C2D6C6018A
:1030D00011D7D3D60E9452216093A6087093A708F7
:1030E0008093A8089093A90865960FB6F894DEBF60
:1030F0000FBECDBFDF91CF911F910F91FF90DF9059
:10310000CF90BF90AF909F908F9008954ED6209112
:10311000BE0830E08217930794F4880F991FFC01D2
:10312000E655F74F80819181CBD50E945221609363
:10313000A6087093A7088093A8089093A9080895FB
:103140000F931F93CF93DF9330D6EC01DBD5882309
:1031500061F081E080938E1680938F168091901697
:10316000909191160E94B82805C010928F1660E0C9
:1031700070E0CB012091BE0830E0C217D3079CF568
:10318000CC0FDD1FC655D74FE881F9811182DF01D1
:10319000AE5ABF4F0D911D912D913C911397601721
:1031A000710782079307A9F06D937D938D939C938C
:1031B000139701891289238934896017710782075F
:1031C000930739F0618B728B838B948BCF010296BE
:1031D00066DB0E9452216093A6087093A708809333
:1031E000A8089093A908DF91CF911F910F9108959E
:1031F000CF93DBD5C82FD9D5BC018C2F2DD70E94FA
:1032000052216093A6087093A7088093A808909312
:10321000A908CF910895CF92DF92EF92FF92CF93BA
:10322000DF93EC010E9452216B017C018C819D8116
:10323000AE81BF81A7019601281B390B4A0B5B0B9E
:103240002B30310541055105B8F08A810E945B0899
:10325000CC82DD82EE82FF829B81891769F091E04A
:10326000811101C090E09B83CE01DF91CF91FF904F
:10327000EF90DF90CF9067CCDF91CF91FF90EF90F0
:10328000DF90CF900895CF93DF93EC016A83598349
:10329000488381E08B830E9452216C837D838E83DF
:1032A0009F8360E08A810E94B10861E08A81DF919A
:1032B000CF910C9483081F920F920FB60F92112496
:1032C0000BB60F922F933F934F935F936F937F9320
:1032D0008F939F93AF93BF93EF93FF938091B90028
:1032E000887F803609F49CC068F5883209F45BC099
:1032F00090F4803109F454C038F4882309F4F6C0FE
:10330000883009F44DC0F5C0883109F44CC08032D2
:1033100009F45DC0EEC0803409F468C048F480331D
:1033200009F455C0883309F0E4C080931C04D8C068
:10333000803509F44FC0883509F45DC0883409F040
:10334000D8C0D6C0883909F4C7C0A8F4883709F4B2
:1033500067C038F4883609F463C0803709F460C068
:10336000C8C0883809F4B8C0803909F45FC0803813
:1033700009F0BFC05BC0803B09F486C038F4803AD6
:1033800009F466C0883A09F47FC0B3C0803C09F4F0
:10339000A7C0883C09F4A4C0883B09F48AC0A9C02E
:1033A0008091F90310C090911B0480911A04981722
:1033B00070F5E0911B0481E08E0F80931B04F0E018
:1033C000E650FC4F80818093BB0085EC86C08093E3
:1033D0001C048EC0E0911B0481E08E0F80931B04BF
:1033E0008091BB00F0E0E650FC4F808390911B047D
:1033F00080911A046EC0E0911B0481E08E0F8093CF
:103400001B048091BB00F0E0E650FC4F808380916C
:10341000930381116DC081E08093920384EA61C0BF
:1034200083E0809394031092A508CFCF8091A508E4
:10343000803208F051C0E091A50881E08E0F8093A2
:10344000A5088091BB00F0E0EB57F74F8083BDCF1C
:1034500085EC8093BC00109294038091A508803283
:1034600030F4E091A508F0E0EB57F74F108260913F
:10347000A50870E0E0918E03F0918F0385E898E055
:1034800019951092A50835C084E08093940310929A
:10349000840810928308E0919003F09191031995AC
:1034A00080918308811105C081E080938308109288
:1034B0006308E091840881E08E0F80938408F0E037
:1034C000ED59F74F80818093BB00909184088091E3
:1034D0008308981708F479CF85E88093BC0009C069
:1034E00085EC8093BC001092940303C010921C04DE
:1034F0004ADBFF91EF91BF91AF919F918F917F91A7
:103500006F915F914F913F912F910F900BBE0F9054
:103510000FBE0F901F9018958F929F92AF92BF92FF
:10352000CF92DF92EF92FF920F931F93CF93DF938F
:10353000EC01B62EB7D6098D1A8D2B8D3C8D6B0103
:103540007C01C01AD10AE20AF30A97018601CD8CE8
:10355000DE8C0D2C000CEE08FF080C151D052E0549
:103560003F05C4F0288DFE0134E0239FE00DF11DDE
:10357000112410821182128213822F5F288F648798
:10358000758786879787698F7A8F8B8F9C8F23307B
:1035900008F0188EB1101DC0288DFE0144E0249F54
:1035A000E00DF11D1124C484D584E684F7849B01C9
:1035B000AC012C193D094E095F0969017A01121607
:1035C000130614061506D4F0C12CD12C7601C39431
:1035D00015C0FE019E01245F3F4FC080D180E28074
:1035E000F3804FEFC41AD40AE40AF40AC192D192CC
:1035F000E192F1922E173F0781F7CECF6081718162
:10360000828193810E94282920E030E04AE754E437
:103610000E9487294B015C01C701B6010E9428293D
:103620009B01AC01C501B4010E94242B6F8F78A3CC
:1036300089A39AA3DF91CF911F910F91FF90EF90F3
:10364000DF90CF90BF90AF909F908F9008958F9212
:103650009F92AF92BF92CF92DF92EF92FF920F9321
:103660001F93CF93DF93EC0188810E945B08BB24FA
:10367000B394892B09F4B12C15D62A812983CB80E8
:10368000DC80ED80FE800F811885B216B9F09B01B9
:10369000AC012C193D094E095F0969017A01012E1F
:1036A000000C220B330BC016D106E206F3060CF019
:1036B000BA826B837C838D839E831CC0012E000C99
:1036C000220B330B4B015C018C189D08AE08BF0820
:1036D00080169106A206B3066CF0DC01CB01801BBC
:1036E000910BA20BB30B0197A109B1098B839C83AA
:1036F000AD83BE83DF91CF911F910F91FF90EF902B
:10370000DF90CF90BF90AF909F908F9008952F92B1
:103710003F924F925F926F927F928F929F92AF9261
:10372000BF92CF92DF92EF92FF920F931F93CF93AE
:10373000DF931F921F92CDB7DEB78C0149832A8396
:10374000660F771FF801EA5AFF4FE080F180EE0C18
:10375000FF1CF801CF01801B910B8E159F0514F4FF
:103760001192F8CF8981F801E60FF71F81838A81D2
:103770008083480184E5880E911C60E0F40180811B
:103780000E9483082801F2E54F0E511C380180E5A4
:10379000680E711C1E141F043CF5E1E0EE1AF108DE
:1037A000F801EE0DFF1DA080F2013080F3012080B2
:1037B00087E0C82ED12CB12CB5010C2C02C0759518
:1037C00067950A94E2F76170822D0E94830861E098
:1037D000832D0E94830860E0832D0E948308F1E01E
:1037E000CF1AD10848F7D6CF61E0F40180810F905D
:1037F0000F90DF91CF911F910F91FF90EF90DF908D
:10380000CF90BF90AF909F908F907F906F905F9080
:103810004F903F902F900C948308CF92DF92EF92BD
:10382000FF921F93CF93DF937C016B01EB0183E049
:10383000CC0FDD1F8A95E1F76096CE0DDF1D11E0FC
:10384000199220E0412FB601C70161DF1F5F1930D7
:10385000B9F7DF91CF911F91FF90EF90DF90CF905C
:1038600008950F931F93CF93DF939FD2EC019DD2C6
:103870008C019BD2282FFE01EE0FFF1FEE0FFF1FC2
:10388000E956FE4E8281882389F08381081770F4FF
:10389000B801772780819181FC01EA5AFF4F40816E
:1038A00051816417750714F44AE031DFFBD460934B
:1038B000A6087093A7088093A8089093A908DF91A1
:1038C000CF911F910F910895CCCF77FD0FC0FC01D0
:1038D000EA5AFF4F20813181621773073CF4442379
:1038E00011F020E001C021E04CE011CF0895CF930A
:1038F000DF93CDB7DEB728970FB6F894DEBF0FBEC3
:10390000CDBF66D2BC01CE010196F7D040E350E0B6
:103910006FE172E0CE01019607D383E290E09887D1
:103920008F8341E050E0BE01695F7F4F80E090E00F
:103930001DD34FE250E06FE172E081E090E016D3DA
:1039400085E090E086D28FE192E0D4D296D2898150
:103950009A810E947C2C28960FB6F894DEBF0FBE89
:10396000CDBFDF91CF9108956F927F928F929F92FA
:10397000AF92BF92CF92DF92EF92FF920F931F937D
:10398000CF93DF9300D000D0CDB7DEB70ED28C013D
:103990000CD27C011DD26C0108D24C0106D25C0114
:1039A000000F111F000F111F09561E4ED80112964D
:1039B0008C91882309F457C0B601CE0101969DD0A1
:1039C000FF24370183E0660C771C8A95E1F7D12C40
:1039D00048E0BB249924CC24CA94C40E6C2D70E01A
:1039E000C5010C2C02C0959587950A94E2F780FFDB
:1039F00033C08D2D90E02D813E818217930750F4C6
:103A000029813A812115310529F0F901E80FF91FC3
:103A1000E08101C0E0E0D8018D919C91DC01AA5ABF
:103A2000BF4F2D913C91E216F306ACF4F0E0E05666
:103A3000FD4F2081F4010C2C02C0F595E7950A9406
:103A4000E2F7E0FD2068680F791FFB01E60DF71D26
:103A5000208BB7015CDED3944C2DC110BCCF898183
:103A60009A810E947C2C1ED46093A6087093A708AC
:103A70008093A8089093A90826960FB6F894DEBF05
:103A80000FBECDBFDF91CF911F910F91FF90EF90AF
:103A9000DF90CF90BF90AF909F908F907F906F906E
:103AA0000895CF92DF92EF92FF920F931F93CF93DF
:103AB000DF936C017A018B01C0E0D0E0CE15DF0509
:103AC00081F0D8016D918D01D601ED91FC910190AD
:103AD000F081E02DC6011995892B11F02196EECFCA
:103AE0007E01C701DF91CF911F910F91FF90EF9061
:103AF000DF90CF9008950E94E52DEF92FF920F93F3
:103B00001F93CF93DF93EC01198218821B821A82D4
:103B10001D821C8261157105B9F17B01FB010190C9
:103B20000020E9F731978F01061B170BB8016F5F73
:103B30007F4F80E090E00E94052D009759F0998317
:103B400088831B830A832C813D81232B81F4FC0114
:103B500010820DC088819981009711F00E947C2C01
:103B6000198218821D821C821B821A820DC01D833D
:103B70000C83B70188819981DF91CF911F910F91BB
:103B8000FF90EF900C94F22DDF91CF911F910F9148
:103B9000FF90EF9008958F929F92AF92BF92EF9215
:103BA000FF920F931F93CF93DF93CDB7DEB7A1970B
:103BB0000FB6F894DEBF0FBECDBF7C01FA01CB017A
:103BC00019A2223008F42AE08E010F5D1F4F822EC9
:103BD000912CA12CB12CBF01A50194010E948E2A29
:103BE000F901CA01015011096A3014F4605D01C085
:103BF000695CD8016C93232B242B252B61F7B8012A
:103C0000C7010E949412A1960FB6F894DEBF0FBEB2
:103C1000CDBFDF91CF911F910F91FF90EF90BF909B
:103C2000AF909F908F900895DC01ED91FC910190F1
:103C3000F081E02D1994EF92FF920F931F93CF9391
:103C4000DF938C017B01C0E0D0E0F701EC0FFD1F9A
:103C50006491662361F0D801ED91FC910190F081AF
:103C6000E02DC8011995892B11F02196EECFCE01D8
:103C7000DF91CF911F910F91FF90EF900895AC01CC
:103C80001092C9159091991680919816FA01BF016A
:103C9000641B750BDF012081222381F03091C9154F
:103CA0002093C915291304C0931302C01092C9159B
:103CB00031962C912813EBCF931749F3CB0108953C
:103CC000FC01DC01A85BBF4F8C918823D1F081817E
:103CD000811117C081E0818381899289A389B48988
:103CE00080369947AE4FBF4F61F080E699E7AEEF5F
:103CF000BFEF818B928BA38BB48BCF0102960C9478
:103D00004F1408950F931F93CF93DF9380918D16D7
:103D1000882309F440C0813031F482E080938D160D
:103D2000CDECD5E102C0C0E0D0E080918E168823B2
:103D300041F1209721F4C0919216D09193168E01F3
:103D4000CE019DDF892B29F42196F8018081811114
:103D5000F6CFF8018081882301F1C80190DFF801D6
:103D6000E80FF91F8081882311F010823196F093BB
:103D70009316E0939216902F812F90939016809334
:103D800091168091901690919116892B21F081E0E7
:103D900080938E1605C080E003C090E080E0EDCFF8
:103DA000DF91CF911F910F910895ACDF882359F0D7
:103DB00081E080938E1680938F168091901690915B
:103DC00091160C949B2810928F1680E090E0089535
:103DD00099DF882351F081E080938E1680938F16AF
:103DE0008091901690919116089510928F1680E010
:103DF00090E00895CF92DF92EF92FF920F931F937E
:103E0000CF93DF9377FF1BC06A017B01EC016DE26A
:103E10000BDF8C0144275527BA014C195D096E0947
:103E20007F092AE0CE01B7DE800F911FDF91CF918D
:103E30001F910F91FF90EF90DF90CF9008952AE0AF
:103E4000DF91CF911F910F91FF90EF90DF90CF9076
:103E5000A2CEAC018091C41581110EC081E0809387
:103E6000C4158093CB15052E000C660B770B809143
:103E7000951690919616BECF08958091C41588230B
:103E800099F0609197168091951690919616CCDED8
:103E90008091CC15882341F06EE773E080919516F0
:103EA000909196160E9494121092CB151092C41500
:103EB00080E00895CF93DF932091C415211116C09F
:103EC000EB01C7DF8091C415882369F060919816D3
:103ED0008091951690919616A7DEBE018091951659
:103EE00090919616A8DEDF91CF91C7CF80E0DF9149
:103EF000CF910895CF93DF932091C415222389F0A9
:103F0000EC016091981680919516909196168CDE32
:103F1000BE018091951690919616DF91CF910C94E9
:103F20009412DF91CF9108950F931F93CF93DF9356
:103F3000FC01C481D581209719F4FB01108211C0C6
:103F4000415051094C175D0708F4EA018B01FC014F
:103F500060817181AE01C8010E94F92DC00FD11F8F
:103F60001882DF91CF911F910F910895CF92DF9228
:103F7000EF92FF920F931F93CF93DF936C017B011E
:103F80008A01C0E0D0E0C017D10760F4B6016C0F21
:103F90007D1F41E050E0C7018C0F9D1F0E944B2AFE
:103FA0002196F1CFC801DF91CF911F910F91FF9022
:103FB000EF90DF90CF900895CF93DF93CDB7DEB72A
:103FC00028970FB6F894DEBF0FBECDBF28E0E0E320
:103FD000F3E0DE01119601900D922A95E1F7FC01C4
:103FE0002185261710F46FEF620FFE013196E60F60
:103FF000F11DE60FF11D6081606840E028960FB664
:10400000F894DEBF0FBECDBFDF91CF910C9481132A
:104010001F93CF93DF93EC01162F688385E090E028
:1040200098878F8360E0812F0E94B10861E0812F23
:104030000E94830837D16B837C838D839E83888124
:104040000E945B0821E0892B09F420E02A83298360
:10405000DF91CF911F9108951F93CF93DF93182F76
:10406000EB0161E00E94B108209711F460E004C008
:10407000CF3FD10539F461E0812FDF91CF911F91BE
:104080000C948308E12FF0E0EB5BFD4FE4918E2F61
:1040900090E0FC013197E231F10508F09DC08827DE
:1040A000E356FF4F8F4F0C94DC2B84B5806884BDA2
:1040B000C7BD97C084B5806284BDC8BD92C08091E1
:1040C0008000806880938000D0938900C09388002E
:1040D00088C080918000806280938000D0938B00A4
:1040E000C0938A007EC080918000886080938000A9
:1040F000D0938D00C0938C0074C08091B000806814
:104100008093B000C093B3006CC08091B000806217
:104110008093B000C093B40064C080919000806828
:1041200080939000D0939900C09398005AC08091DA
:104130009000806280939000D0939B00C0939A007F
:1041400050C080919000886080939000D0939D0033
:10415000C0939C0046C08091A00080688093A0001E
:104160008091A0008F7B8093A000D093A900C09382
:10417000A80037C08091A00080628093A000D093F7
:10418000AB00C093AA002DC08091A00088608093EE
:10419000A000D093AD00C093AC0023C0809120015B
:1041A000806880932001D0932901C093280119C011
:1041B00080912001806280932001D0932B01C093D5
:1041C0002A010FC080912001886080932001D09344
:1041D0002D01C0932C0105C0C038D1050CF04BCF88
:1041E00045CFDF91CF911F9108953FB7F89480910B
:1041F000DD169091DE16A091DF16B091E01626B57F
:10420000A89B05C02F3F19F00196A11DB11D3FBF0E
:10421000BA2FA92F982F8827820F911DA11DB11D9C
:10422000BC01CD0142E0660F771F881F991F4A9598
:10423000D1F708958F929F92AF92BF92CF92DF9263
:10424000EF92FF926B017C01D0DF4B015C01C11446
:10425000D104E104F104E9F0C8DFDC01CB018819E5
:104260009909AA09BB09883E9340A105B10578F3D5
:1042700021E0C21AD108E108F10888EE880E83E037
:10428000981EA11CB11CC114D104E104F10421F752
:10429000DECFFF90EF90DF90CF90BF90AF909F90D8
:1042A0008F9008952FB7F8946091D9167091DA160F
:1042B0008091DB169091DC162FBF08951F920F920C
:1042C0000FB60F9211242F933F938F939F93AF9329
:1042D000BF938091D9169091DA16A091DB16B09118
:1042E000DC163091D81623E0230F2D3720F40196E9
:1042F000A11DB11D05C026E8230F0296A11DB11D09
:104300002093D8168093D9169093DA16A093DB16D3
:10431000B093DC168091DD169091DE16A091DF1629
:10432000B091E0160196A11DB11D8093DD1690930A
:10433000DE16A093DF16B093E016BF91AF919F9168
:104340008F913F912F910F900FBE0F901F90189556
:10435000CF93DF9300D000D0CDB7DEB7789484B58B
:10436000826084BD84B5816084BD85B5826085BD71
:1043700085B5816085BD80916E00816080936E00FF
:1043800010928100809181008260809381008091F1
:1043900081008160809381008091800081608093A2
:1043A00080008091B10084608093B1008091B00062
:1043B00081608093B0008091910082608093910031
:1043C0008091910081608093910080919000816044
:1043D000809390008091A10082608093A1008091E1
:1043E000A10081608093A1008091A00081608093F2
:1043F000A0008091210182608093210180912101A0
:10440000816080932101809120018160809320014F
:1044100080917A00846080937A0080917A00826033
:1044200080937A0080917A00816080937A008091F5
:104430007A00806880937A001092C100E09137156D
:10444000F091381582E08083E0913315F0913415B6
:104450001082E0913515F091361580E1808310923D
:104460003F15E0913B15F0913C1586E08083E0918B
:104470003915F0913A15808180618083E09139157A
:10448000F0913A15808188608083E0913915F09130
:104490003A15808180688083E0913915F0913A1552
:1044A00080818F7D808381EB91E090939B16809338
:1044B0009A1681E39CE190939D1680939C1684EB61
:1044C0009CE190939F1680939E1684E69CE19093C6
:1044D000D1168093D01688EF98E19093A11680931F
:1044E000A01680EA98E19093A3168093A2168BEB16
:1044F00096E19093A5168093A41681E991E090939C
:10450000AF168093AE168AE996E19093B516809324
:10451000B41681EC94E09093B3168093B21683E6C0
:1045200092E09093B7168093B6168AE692E0909345
:10453000B9168093B81684EA94E09093BD168093E0
:10454000BC1687E79CE19093C3168093C2168EEA4F
:1045500096E19093C5168093C41686E898E19093EF
:10456000C7168093C6168AED97E19093C91680937B
:10457000C81681E896E19093CB168093CA168FE314
:1045800095E09093CD168093CC1688E098E19093B7
:10459000CF168093CE1681E08093CC150E943F0504
:1045A000992493948091CB158111D1C08091951657
:1045B00090919616DC01ED91FC910084F185E02D3F
:1045C0001995892B09F4C3C0809195169091961680
:1045D000DC01ED91FC910084F185E02D1995803688
:1045E00091050CF0B0C08091951690919616DC0163
:1045F000ED91FC910084F185E02D19957C01E0910D
:104600009516F0919616FA83E9830DE2A02E06E145
:10461000B02E650100E010E0E016F10619F41A82F0
:10462000198261C03FDEA981BA8118966D937D938E
:104630008D939C931B97A981BA81ED91FC91119761
:104640000284F385E02DCD01199597FFB9C32ADEC9
:10465000E981FA814084518462847384DC01CB0156
:1046600084199509A609B70944805580668077802A
:1046700084159505A605B705F0F2D1CFD5019D911A
:104680005D0110928D16309199162091CA15909364
:10469000CA15931771F1409197168091C615E82FAE
:1046A000F0E0EC53FA4E941329C0321739F1118619
:1046B000882321F090928D161092CA151092C6157B
:1046C00010929116109290161092931610929216C4
:1046D00090928E1680918D168130C9F0E981FA8111
:1046E0003196FA83E98329813A812E153F0534F208
:1046F00059CF9213D0CF1092CA15CDCF91878F5F2B
:104700008093C6159091C8158917C0F6E3CF4DDB8D
:104710008093C5158E3178F420918F16222359F09D
:10472000FC01FF27EE0FFF1FE456F94E0190F081C8
:10473000E02D309731F4E0919A16F0919B16309766
:1047400069F21995CBCF90E6E92EF12C58CF8091E4
:10475000C10881113FC3A6DD0091A6081091A708EA
:104760002091A8083091A908DC01CB01801B910B96
:10477000A20BB30B813A9B4BAD40B10508F026C3A9
:104780008091C008882309F418C327EA31E13A83ED
:10479000298300E010E08091E30390E08017910707
:1047A00069F089819A810E940B190F5F1F4F49811F
:1047B0005A81445F5F4F5A834983EDCF8BE79AE07C
:1047C0009E838D8302EA1AE0212C312C8091BF0850
:1047D00090E08215930509F4BEC1AD81BE811296A9
:1047E0008C911297882309F4AAC1CD0103960E94E7
:1047F000271B8D819E810C960E94271BED81FE81D7
:10480000D684F1E0DF268D2D880FAD81BE8115960F
:10481000DC90DF26D82A60E0C8010E948C1AED8166
:10482000FE81C588DC1409F4ABC07F01F6E4EF0E0D
:10483000F11CD7016D917D918D919C916DD7653063
:104840007105A4F0F701608171818281938164D741
:104850006031710574F4D7016D917D918D919C91BA
:104860005BD77B01B5E0EB1AF10806C0E12CF12C17
:1048700003C0BAE0EB2EF12CED81FE81868D978D81
:10488000A0A1B1A1828C938CA48CB58CBC01CD016C
:10489000681979098A099B096E31710581059105AD
:1048A00044F02EE130E040E050E00CD6CA01B901FE
:1048B00004C061E070E080E090E04701FF0CAA08CE
:1048C000BB08A50194015DD79B01AC01C501B401F2
:1048D00058D79B01AC01C501B40153D728EE33E092
:1048E00040E050E0EFD549015A01FFEF8F1A9F0ACF
:1048F000AF0ABF0A2C2D34E02302F00111248D2DC4
:104900000D2C000C990BE82BF92BE05EFC4F60811D
:10491000062E000C770B689DA001699D500D789DB7
:10492000500D1124AD81BE8156962D913C91579723
:10493000420F531F57965C934E935697BBE5B29D1B
:104940009001B39D300D11242558354FF901E80F22
:10495000F91F82A1882381F061E0C8010E948C1AAE
:10496000ED81FE818689978906A002C0959587957D
:104970000A94E2F7918F808FAD81BE815596DC92CB
:10498000ED81FE81408C518C052C000C6608770867
:10499000F80185A196A1A7A1B0A5481659066A06F7
:1049A0007B0609F4CCC073016201C81AD90AEA0A6D
:1049B000FB0AF7FE05C088248A94982C540104C091
:1049C000812C912C54018394C982DA82EB82FC827F
:1049D000F7FE0BC022273327A9012C193D094E09E8
:1049E0005F0929833A834B835C8349815A816B81B8
:1049F0007C8187E295E1FED96EE773E087E295E17D
:104A00000E949412D801D2968D919C91D397A0E0E8
:104A1000B0E029813A814B815C81281739074A0728
:104A20005B073CF531E083169104A104B10481F4E5
:104A3000D8019996ED91FC919A97309749F0939609
:104A40004D915C919497AD81BE816C9180E026C0C0
:104A5000D8019D96ED91FC919E97309791F1939698
:104A60004D915C919497AD81BE8111966C9182E0DD
:104A700027C0B1E08B169104A104B10489F4D801D8
:104A80009B96ED91FC919C97309751F093964D91A8
:104A90005C919497AD81BE816C9181E0199539C08C
:104AA000D8019F96ED91FC91D097309751F0939655
:104AB0004D915C919497AD81BE8111966C9183E08C
:104AC0001995B1E08B169104A104B10411F18B206A
:104AD0008A208920809461F5CC0CDD1CEE1CFF1C23
:104AE000D301C2018C199D09AE09BF09803C904ECB
:104AF000AF4FBF4FECF4ED81FE81868997898370BB
:104B00009927978B868B118E108E412C512C320158
:104B10000FC0CC0CDD1CEE1CFF1CC40CD51CE61C0D
:104B2000F71CF1E4CF16FFE1DF06E104F1041CF706
:104B3000D80195964D925D926D927C929897BFEFB9
:104B40002B1A3B0AED81FE81E55AFF4FFE83ED8370
:104B5000055A1F4F3BCE7AEAC72E78E0D72EE12CBC
:104B6000F12C8091BE0890E08E159F0509F460C07D
:104B7000D601ED91FD916D01FA83E98385A196A19E
:104B8000A7A1B0A5892B8A2B8B2B09F447C02DDB5D
:104B90004B015C01E981FA8181A592A5A3A5B4A589
:104BA000B501A401481B590B6A0B7B0B85A196A18B
:104BB000A7A1B0A5481759076A077B0778F1EB5BF7
:104BC000FF4F2081E981FA8185859685A785B08987
:104BD000222321F00196A11DB11D05C00197A10955
:104BE000B109E981FA8185879687A787B08BA9816A
:104BF000BA811D964D915D916D917C9150978D017B
:104C00000E5F1F4FC8010E94C710E981FA8181A67B
:104C100092A6A3A6B4A6C8010E944F1489819A81C6
:104C20008A5B9F4F0E940B19FFEFEF1AFF0A99CF83
:104C30002DE639E03A83298300E010E058E8E52EBC
:104C4000F12C68E5C62E62E0D62E80919A0390E0A2
:104C50008017910709F4B1C0E981FA8181899289AD
:104C6000A389B4894585568567857089841795071A
:104C7000A607B70709F499C0481759076A077B07C1
:104C800024F40197A109B10905C00196A11DB11D28
:104C9000E981FA81818B928BA38BB48B03DBA98191
:104CA000BA8155966D937D938D939C9358975196A9
:104CB0008D919C9152978032B2E09B070CF03DC0E1
:104CC00097FD06C0853B91052CF084EB90E002C077
:104CD00080E090E0E981FA8123854701821A9108FA
:104CE00027FD9394D401AA0FBB1FAA0FBB1F4D0130
:104CF000BB0FAA08BB082485A601421B510927FD4A
:104D000053959A01220F331F220F331FA901330F2E
:104D1000660B770B9A01AB01281939094A095B091F
:104D2000DC01F6D324EB30E040E050E0CBD3DA01F5
:104D3000C901880D991DAA1DBB1DA981BA811A96AA
:104D40002C911A97203388F51B963C911B97A7014D
:104D5000431B510937FD5395440F551F440F551FF1
:104D60008417950784F01C963C91B601631B71096A
:104D700037FD7395660F771F660F771FAC016817B5
:104D800079070CF4AB01CA010297880F991F4FB73E
:104D9000F89430E0F901EE0FFF1F2E0F3F1FF901CD
:104DA000E053F74F928381834FBF0F5F1F4FE9811D
:104DB000FA817B96FA83E98348CF0E94330FF0CBC8
:104DC000F60181936F010F5F1F4F26CC81E0809326
:104DD000C10818C067DA0091A6081091A7082091B1
:104DE000A8083091A908DC01CB01801B910BA20B14
:104DF000B30B803A9B4BAD40B10508F0C1CC10928B
:104E0000C10880E00E94C802BBCC1F93CF93DF9300
:104E100010922A151092291588EE93E0A0E0B0E0D8
:104E200080932B1590932C15A0932D15B0932E15D0
:104E30002CE333E0309328152093271525EC30E040
:104E4000309334152093331524EC30E0309336152D
:104E50002093351520EC30E030933815209337152A
:104E600021EC30E030933A152093391522EC30E0F4
:104E700030933C1520933B1526EC30E030933E15E3
:104E800020933D1510924015109241151092421535
:104E9000109243151092C5081092C4088093C6085A
:104EA0009093C708A093C808B093C9088AE593E017
:104EB0009093C3088093C20884E690E09093CF0853
:104EC0008093CE0810929B1610929A1687E295E175
:104ED00090939616809395161092CC158CE2809341
:104EE00098168BE3809397168FE28093991680E64D
:104EF0008093C7158FE58093C8151092C615109240
:104F0000911610929016109293161092921681E0BC
:104F100080938E16ECE9F6E11192119226E1E83DBC
:104F2000F207D1F71092CB15C7EDD4E111E0188349
:104F3000198261E081E00E94B108698170E0888196
:104F40008BD8229655E1C732D50789F7C7EAD1E158
:104F500041E853E061E0CE010E9443192C9684E1C0
:104F6000C73DD807A9F71092991110929D11109280
:104F7000A1111092A511EBE7FAE087E991E147E46E
:104F800028E230E0DF011396ED01542F19925A9573
:104F9000E9F7AA5ABF4F2D933C931282E55AFF4F6F
:104FA0008E179F0779F780916009ADE6B9E09FEF12
:104FB00048EB5BE0803388F41A968C931A97282F7D
:104FC00030E0F901EE0FFF1F2E0F3F1FF901E053F4
:104FD000F74F528341838F5F03C01A969C931A97B1
:104FE0005B96CAE0AB37BC0729F780936009109243
:104FF000630910926909DF91CF911F9108958F92F3
:105000009F92AF92BF92CF92DF92EF92FF92CF9397
:10501000DF93EC01688179818A819B81611571053B
:105020008105910521F464E279ED8BE597E02DE1AE
:1050300033EF41E050E046D249015A019B01AC01F7
:10504000A7EAB1E45BD26B017C01ACEEB4EFA50141
:10505000940160D2DC01CB018C0D9D1DAE1DBF1DE6
:10506000B7FF03C00197A109B04888839983AA8339
:10507000BB83BC01CD019F77DF91CF91FF90EF9073
:10508000DF90CF90BF90AF909F908F9008958F92B8
:105090009F92AF92BF92CF92DF92EF92FF92609178
:1050A0004F0270915002809151029091520261150D
:1050B00071058105910521F464E279ED8BE597E0B6
:1050C0002DE133EF41E050E0FDD149015A019B0150
:1050D000AC01A7EAB1E412D26B017C01ACEEB4EFF3
:1050E000A501940117D2DC01CB018C0D9D1DAE1DD5
:1050F000BF1DB7FF03C00197A109B04880934F02BD
:1051000090935002A0935102B0935202BC01CD0182
:105110009F77FF90EF90DF90CF90BF90AF909F90E0
:105120008F90089560934F027093500280935102C4
:10513000909352020895FC0188279927E8942191C1
:105140002032E9F3293010F02E30C8F32B3239F039
:105150002D3231F4689403C06DD0820F911D2191DE
:1051600020532A30C8F31EF4909581959F4F0895DF
:105170001F93FC0199278827BC01E89411911032F4
:10518000E9F3193010F01E30C8F31B3249F01D321C
:1051900041F4689405C039D0610F711D811D911DC6
:1051A000119110531A30B8F33EF490958095709594
:1051B00061957F4F8F4F9F4F1F910895FA01A191E5
:1051C000B081009719F41097E1F0CD01DC01CD0119
:1051D0000D90002011F4C00113C0FB012191222386
:1051E00019F02015D9F7F3CFFB012191201519F4FF
:1051F0001E92119606C02223C1F70D900020A1F740
:10520000D001FA01A193B0830895592F482F372F69
:10521000262F660F771F881F991F660F771F881F1D
:10522000991F620F731F841F951F660F771F881FBA
:10523000991F08957AE0979F902D879F802D910D5B
:105240001124089540D008F481E00895E89409C03D
:1052500097FB3EF490958095709561957F4F8F4FA9
:105260009F4F9923A9F0F92F96E9BB279395F695BF
:10527000879577956795B795F111F8CFFAF4BB0F3D
:1052800011F460FF1BC06F5F7F4F8F4F9F4F16C0A1
:10529000882311F096E911C0772321F09EE8872F2B
:1052A000762F05C0662371F096E8862F70E060E0E7
:1052B0002AF09A95660F771F881FDAF7880F969560
:1052C000879597F90895990F0008550FAA0BE0E804
:1052D000FEEF16161706E807F907C0F012161306B8
:1052E000E407F50798F0621B730B840B950B39F4F8
:1052F0000A2661F0232B242B252B21F408950A265E
:1053000009F4A140A6958FEF811D811D08950BD052
:1053100078C069D028F06ED018F0952309F05AC0F3
:105320005FC01124A2C07ED0A0F3959FD1F3950F4A
:1053300050E0551F629FF001729FBB27F00DB11D19
:10534000639FAA27F00DB11DAA1F649F6627B00DA9
:10535000A11D661F829F2227B00DA11D621F739F92
:10536000B00DA11D621F839FA00D611D221F749FA0
:105370003327A00D611D231F849F600D211D822FE7
:10538000762F6A2F11249F5750408AF0E1F088232E
:105390004AF0EE0FFF1FBB1F661F771F881F91503B
:1053A0005040A9F79E3F510570F014C05EC05F3FAA
:1053B000ECF3983EDCF3869577956795B795F7956E
:1053C000E7959F5FC1F7FE2B880F911D96958795F6
:1053D00097F9089597F99F6780E870E060E0089575
:1053E0009FEF80EC089500240A94161617061806FD
:1053F0000906089500240A941216130614060506D9
:105400000895092E0394000C11F4882352F0BB0F69
:1054100040F4BF2B11F460FF04C06F5F7F4F8F4FCC
:105420009F4F089557FD9058440F551F59F05F3F07
:1054300071F04795880F97FB991F61F09F3F79F0B6
:1054400087950895121613061406551FF2CF469538
:10545000F1DF08C0161617061806991FF1CF8695BA
:105460007105610508940895E894BB27662777279E
:10547000CB0197F90895DC01CB01FC01F999FECF2E
:1054800006C0F2BDE1BDF89A319600B40D924150CC
:105490005040B8F70895DC01CB0102C02D9105D032
:1054A00041505040D8F70895262FF999FECF1FBAE2
:1054B00092BD81BD20BD0FB6F894FA9AF99A0FBE3D
:1054C00001960895052E97FB16F400940FD057FD12
:1054D00005D024D007FC02D046F408C05095409572
:1054E000309521953F4F4F4F5F4F08959095809590
:1054F000709561957F4F8F4F9F4F089531D0A59F35
:10550000900DB49F900DA49F800D911D11240895BE
:10551000B7FFF4CFF3DF821B930B0895A1E21A2E9D
:10552000AA1BBB1BFD010DC0AA1FBB1FEE1FFF1F47
:10553000A217B307E407F50720F0A21BB30BE40B97
:10554000F50B661F771F881F991F1A9469F76095DE
:105550007095809590959B01AC01BD01CF01089598
:10556000A29FB001B39FC001A39F700D811D1124A4
:10557000911DB29F700D811D1124911D08955058E9
:10558000BB27AA270ED03DCF2EDF30F033DF20F02F
:1055900031F49F3F11F41EF423CF0EF4E095E7FBA6
:1055A00019CFE92F3FDF80F3BA176207730784072B
:1055B000950718F071F49EF557CF0EF4E0950B2E79
:1055C000BA2FA02D0B01B90190010C01CA01A00155
:1055D0001124FF27591B99F0593F50F4503E68F1B0
:1055E0001A16F040A22F232F342F4427585FF3CFF1
:1055F000469537952795A795F0405395C9F77EF4C2
:105600001F16BA0B620B730B840BBAF09150A1F00A
:10561000FF0FBB1F661F771F881FC2F70EC0BA0F90
:10562000621F731F841F48F4879577956795B79518
:10563000F7959E3F08F0B3CF9395880F08F0992710
:10564000EE0F9795879508950CD0DBCED3DE40F012
:10565000CADE30F021F45F3F19F0BCCE511105CF06
:10566000BFCEE0DE98F39923C9F35523B1F3951B20
:10567000550BBB27AA2762177307840738F09F5F73
:105680005F4F220F331F441FAA1FA9F333D00E2EE2
:105690003AF0E0E830D091505040E695001CCAF74F
:1056A00029D0FE2F27D0660F771F881FBB1F261714
:1056B00037074807AB07B0E809F0BB0B802DBF01E7
:1056C000FF2793585F4F2AF09E3F510568F082CE26
:1056D000CCCE5F3FECF3983EDCF3869577956795EB
:1056E000B795F7959F5FC9F7880F911D9695879598
:1056F00097F90895E1E0660F771F881FBB1F6217B7
:1057000073078407BA0720F0621B730B840BBA0B74
:10571000EE1F88F7E095089504D06894B111A5CEE6
:10572000089588DE88F09F5790F0B92F9927B751D8
:10573000A0F0D1F0660F771F881F991F1AF0BA9555
:10574000C9F712C0B13081F08FDEB1E008958CCE80
:10575000672F782F8827B85F39F0B93FCCF386954B
:1057600077956795B395D9F73EF4909580957095A8
:1057700061957F4F8F4F9F4F0895A5DD08F48FEF00
:105780000895DB018F939F93B9DEBF91AF91A29FE4
:10579000800D911DA39F900DB29F900D112408952F
:1057A000991B79E004C0991F961708F0961B881F73
:1057B0007A95C9F780950895EE0FFF1F881F8BBF5C
:1057C0000790F691E02D19940F931F93CF93DF93D9
:1057D0008230910510F482E090E0E091E316F091C0
:1057E000E41620E030E0A0E0B0E0309719F140810D
:1057F00051810281138148175907C8F08417950712
:1058000069F4109731F012960C93129713961C932B
:1058100027C00093E3161093E41622C0211531052A
:1058200019F04217530718F49A01BD01EF01DF0187
:10583000F801DBCF21153105F9F0281B390B243095
:10584000310580F48A819B816115710521F0FB018E
:105850009383828304C09093E4168093E316FE0141
:10586000329644C0FE01E20FF31F819391932250C0
:105870003109398328833AC02091E1163091E2162C
:10588000232B41F420915502309156023093E216B9
:105890002093E116209153023091540221153105D5
:1058A00041F42DB73EB74091570250915802241B46
:1058B000350BE091E116F091E216E217F307A0F440
:1058C0002E1B3F0B2817390778F0AC014E5F5F4F56
:1058D0002417350748F04E0F5F1F5093E216409390
:1058E000E1168193919302C0E0E0F0E0CF01DF91F7
:1058F000CF911F910F910895CF93DF93009709F4F3
:1059000081C0FC01329713821282A091E316B091FC
:10591000E416109781F420813181820F931F20912A
:10592000E1163091E2162817390751F5F093E21687
:10593000E093E11667C0ED0120E030E0CE17DF070D
:1059400040F44A815B819E0141155105F1F0EA0165
:10595000F5CFD383C28340815181840F951FC8172F
:10596000D90759F488819981840F951F02969183F4
:1059700080838A819B81938382832115310529F459
:10598000F093E416E093E3163DC0E901FB83EA835C
:1059900049915991C40FD51FEC17FD0761F480811F
:1059A0009181840F951F0296E901998388838281F2
:1059B00093819B838A83E0E0F0E012968D919C9125
:1059C0001397009719F0FD01DC01F7CF8D919C91A1
:1059D00011979D012E5F3F4F820F931F2091E1167B
:1059E0003091E2162817390769F4309729F410929C
:1059F000E4161092E31602C013821282B093E216EC
:105A0000A093E116DF91CF9108956F927F928F92CC
:105A10009F92AF92BF92CF92DF92EF92FF920F933D
:105A20001F93CF93DF93009781F4CB01DF91CF9148
:105A30001F910F91FF90EF90DF90CF90BF90AF90AC
:105A40009F908F907F906F90BFCEFC01E60FF71F65
:105A50009C0122503109E217F30708F4A5C0EC01BC
:105A6000D9010D911C91119706171707A8F0053061
:105A7000110508F497C0C80104978617970708F422
:105A800091C002501109061B170B019311936D93DE
:105A90007C93CF0131DF86C05B01A01AB10A4C01B3
:105AA000800E911EA091E316B091E416612C712C2A
:105AB000E12CF12C109709F446C08D919C9111971F
:105AC000A815B905B1F56C0142E0C40ED11CCA1489
:105AD000DB0478F14C018A189B08640142E0C40E93
:105AE000D11C1296BC9012971396AC91B5E0CB16D0
:105AF000D10440F0B282A38391828082D9016D9358
:105B00007C9309C00E5F1F4F800F911FF901918395
:105B10008083EB2DFA2FE114F10431F0D7011396B5
:105B2000FC93EE9312973EC0F093E416E093E316D5
:105B300039C06816790608F43C017D0112960D9073
:105B4000BC91A02DB7CF8091E1169091E2168816F6
:105B50009906E1F466167706C8F480915302909195
:105B60005402009741F48DB79EB74091570250916F
:105B70005802841B950BE817F907B0F4F093E2166E
:105B8000E093E116F901718360830CC0CB011CDE48
:105B90007C01009749F0A801BE011BD0CE01ACDE0C
:105BA000C70104C0CE0102C080E090E0DF91CF9138
:105BB0001F910F91FF90EF90DF90CF90BF90AF902B
:105BC0009F908F907F906F90089581E090E0F8947F
:105BD000FAC2FB01DC0102C001900D92415050401D
:105BE000D8F70895FB01DC0101900D920020E1F748
:105BF0000895FB01DC014150504048F001900D92A6
:105C00000020C9F701C01D9241505040E0F70895AF
:105C10000F931F93CF93DF93CDB7DEB72E970FB6B9
:105C2000F894DEBF0FBECDBF0E891F8986E08C833E
:105C30001A8309838FEF9FE79E838D83AE01465EB3
:105C40005F4F688D798DCE01019610D0EF81F88578
:105C5000E00FF11F10822E960FB6F894DEBF0FBE34
:105C6000CDBFDF91CF911F910F9108952F923F9259
:105C70004F925F926F927F928F929F92AF92BF925C
:105C8000CF92DF92EF92FF920F931F93CF93DF9308
:105C9000CDB7DEB72B970FB6F894DEBF0FBECDBFE2
:105CA0006C017B018A01FC0117821682838181FFCE
:105CB000BFC1CE0101963C01F6019381F70193FD2E
:105CC000859193FF81917F01882309F4ADC18532CD
:105CD00039F493FD859193FF81917F01853221F401
:105CE000B60190E0D6D1E8CF912C212C312CFFE1E8
:105CF000F315D8F08B3279F038F4803279F08332B2
:105D0000A1F4232D20611DC08D3261F0803369F430
:105D1000232D216016C0832D8260382EE32DE46090
:105D20003E2E2AC0F32DF8601DC037FC2DC020ED9B
:105D3000280F2A3040F08E32B9F436FC75C1232D7D
:105D40002064322E19C036FE06C08AE0989E200DCF
:105D50001124922E11C0EAE02E9E200D1124222E35
:105D6000F32DF0623F2E08C08C3621F4832D80681D
:105D7000382E02C0883641F4F70193FD859193FFD8
:105D800081917F018111B3CF982F9F7D95549330DE
:105D900028F40C5F1F4F9FE399830DC0833631F0C9
:105DA000833771F0833509F055C020C0F801808138
:105DB00089830E5F1F4F88248394912C530112C056
:105DC0002801F2E04F0E511CF801A080B18036FE90
:105DD00003C0692D70E002C06FEF7FEFC5014ED1A7
:105DE0004C018201F32DFF773F2E15C0280122E0E0
:105DF000420E511CF801A080B18036FE03C0692D0F
:105E000070E002C06FEF7FEFC5012DD14C01F32D83
:105E1000F0683F2E820133FC19C0822D90E0881675
:105E20009906A0F4B60180E290E033D12A94F5CF30
:105E3000F50137FC859137FE81915F01B60190E055
:105E400028D121102A9421E0821A9108811491040A
:105E500079F7E1C0843611F0893639F5F80137FE5B
:105E600007C060817181828193810C5F1F4F08C0E0
:105E700060817181072E000C880B990B0E5F1F4FFC
:105E8000F32DFF763F2E97FF09C090958095709572
:105E900061957F4F8F4F9F4FF0683F2E2AE030E093
:105EA000A30133D1882E861844C0853731F4232DC1
:105EB0002F7EB22E2AE030E025C0932D997FB92E97
:105EC0008F36C1F018F4883579F0AEC0803719F0FC
:105ED000883721F0A9C0E92FE061BE2EB4FE0DC0C5
:105EE000FB2DF460BF2E09C034FE0AC0292F2660A6
:105EF000B22E06C028E030E005C020E130E002C04C
:105F000020E132E0F801B7FE07C060817181828133
:105F100093810C5F1F4F06C06081718180E090E02B
:105F20000E5F1F4FA301F1D0882E8618FB2DFF773F
:105F30003F2E36FE0DC0232D2E7FA22E891458F43D
:105F400034FE0BC032FC09C0832D8E7EA82E05C006
:105F5000B82CA32C03C0B82C01C0B92CA4FE0FC0D0
:105F6000FE01E80DF11D8081803321F49A2D997E88
:105F7000A92E09C0A2FE06C0B394B39404C08A2D12
:105F8000867809F0B394A3FC10C0A0FE06C0B2143A
:105F900080F4280C922C9B180DC0B21458F4B60152
:105FA00080E290E076D0B394F8CFB21418F42B18B6
:105FB00002C0982C212CA4FE0FC0B60180E390E013
:105FC00068D0A2FE16C0A1FC03C088E790E002C022
:105FD00088E590E0B6010CC08A2D867851F0A1FECC
:105FE00002C08BE201C080E2A7FC8DE2B60190E026
:105FF00050D0891430F4B60180E390E04AD09A94EE
:10600000F8CF8A94F301E80DF11D8081B60190E08C
:1060100040D08110F6CF222009F44ECEB60180E2A6
:1060200090E037D02A94F7CFF6018681978102C09D
:106030008FEF9FEF2B960FB6F894DEBF0FBECDBF4C
:10604000DF91CF911F910F91FF90EF90DF90CF9054
:10605000BF90AF909F908F907F906F905F904F9088
:106060003F902F900895FC01059061507040011001
:10607000D8F7809590958E0F9F1F0895FC01615071
:10608000704001900110D8F7809590958E0F9F1F5A
:1060900008950F931F93CF93DF93FB01238121FD7D
:1060A00003C08FEF9FEF2CC022FF16C0468157819F
:1060B000248135814217530744F4A081B1819D01A9
:1060C0002F5F3F4F318320838C93268137812F5F51
:1060D0003F4F3783268314C08B01EC01FB01008402
:1060E000F185E02D1995892BE1F6D80116968D9151
:1060F0009C911797019617969C938E931697CE01B5
:10610000DF91CF911F910F910895FA01AA272830AE
:1061100051F1203181F1E8946F936E7F6E5F7F4F74
:106120008F4F9F4FAF4FB1E03ED0B4E03CD0670FF0
:10613000781F891F9A1FA11D680F791F8A1F911D43
:10614000A11D6A0F711D811D911DA11D20D009F493
:1061500068943F912AE0269F11243019305D3193D5
:10616000DEF6CF010895462F4770405D4193B3E0BE
:106170000FD0C9F7F6CF462F4F70405D4A3318F065
:10618000495D31FD4052419302D0A9F7EACFB4E016
:10619000A6959795879577956795BA95C9F70097CE
:1061A0006105710508959B01AC010A2E069457956F
:1061B000479537952795BA95C9F7620F731F841FC6
:0A61C000951FA01D0895F894FFCF6D
:1061CA004D6F6269466C69676874204D6567610046
:1061DA000000000031323334353637383930004D5B
:1061EA006F6269466C69676874204D656761000073
:1061FA000000000000000000000000000000000095
:10620A000000000000000000000000000000000183
:10621A000000000000E516800000000001020100F5
:10622A000000020100000101000101000101010159
:10623A00010000000000761242120A12C710B110C3
:10624A006F104E101A10F90FA30F6B0F312E392E43
:10625A0031300000000000009613511D7E167D1695
:10626A007E306D79335B5F707F7B771F0D3D4F47C3
:10627A000000000000000000000000000000000014
:10628A0000000000000000000000000080018025DE
:10629A007E306D79335B5F707F7B00000009000000
:1062AA0000777F4E7E4F475F37307C000E00767E48
:1062BA00677E775B463E000000336D4E1378000818
:1062CA00007D1F0D3D4F477B373038000600151DF6
:1062DA006773055B0F1C000000276D4E00780000F5
:1062EA0000FF0100010000FFFF0000010001FF00A4
:1062FA00000040001400540000000000C60E511DAA
:10630A005E0E120F8F0E6D0E810E000000007B1DB7
:10631A00511D7E167D16000000004F1623167E16AC
:10632A00F7151B160716F815534E2D253033782D01
:10633A0000253033780030002E003A0020000D0A84
:08634A0000427574746F6E00CF
:00000001FF
